{
  "contractName": "DataType",
  "abi": [
    {
      "inputs": [],
      "stateMutability": "nonpayable",
      "type": "constructor"
    },
    {
      "inputs": [],
      "name": "GetAll",
      "outputs": [
        {
          "internalType": "uint256",
          "name": "",
          "type": "uint256"
        },
        {
          "internalType": "int256",
          "name": "",
          "type": "int256"
        },
        {
          "internalType": "uint8",
          "name": "",
          "type": "uint8"
        },
        {
          "internalType": "bool",
          "name": "",
          "type": "bool"
        },
        {
          "internalType": "address",
          "name": "",
          "type": "address"
        },
        {
          "internalType": "bytes32",
          "name": "",
          "type": "bytes32"
        },
        {
          "internalType": "string",
          "name": "",
          "type": "string"
        }
      ],
      "stateMutability": "view",
      "type": "function",
      "constant": true
    }
  ],
  "bytecode": "0x608060405260176000557ffffffffffffffffffffffffffffffffffffffffffffffffffffffffffffffff36001556000600260006101000a81548160ff021916908360ff1602179055506001600260016101000a81548160ff021916908315150217905550336002806101000a81548173ffffffffffffffffffffffffffffffffffffffff021916908373ffffffffffffffffffffffffffffffffffffffff1602179055507f74657374000000000000000000000000000000000000000000000000000000006003556040518060400160405280600481526020017f746573740000000000000000000000000000000000000000000000000000000081525060049080519060200190610113929190610126565b5034801561012057600080fd5b50610229565b828054610132906101f8565b90600052602060002090601f016020900481019282610154576000855561019b565b82601f1061016d57805160ff191683800117855561019b565b8280016001018555821561019b579182015b8281111561019a57825182559160200191906001019061017f565b5b5090506101a891906101ac565b5090565b5b808211156101c55760008160009055506001016101ad565b5090565b7f4e487b7100000000000000000000000000000000000000000000000000000000600052602260045260246000fd5b6000600282049050600182168061021057607f821691505b602082108103610223576102226101c9565b5b50919050565b6103b6806102386000396000f3fe608060405234801561001057600080fd5b506004361061002b5760003560e01c8063a5440fa014610030575b600080fd5b610038610054565b60405161004b97969594939291906102aa565b60405180910390f35b6000806000806000806060600054600154600260009054906101000a900460ff16600260019054906101000a900460ff1660028054906101000a900473ffffffffffffffffffffffffffffffffffffffff1660035460048080546100b79061034f565b80601f01602080910402602001604051908101604052809291908181526020018280546100e39061034f565b80156101305780601f1061010557610100808354040283529160200191610130565b820191906000526020600020905b81548152906001019060200180831161011357829003601f168201915b50505050509050965096509650965096509650965090919293949596565b6000819050919050565b6101618161014e565b82525050565b6000819050919050565b61017a81610167565b82525050565b600060ff82169050919050565b61019681610180565b82525050565b60008115159050919050565b6101b18161019c565b82525050565b600073ffffffffffffffffffffffffffffffffffffffff82169050919050565b60006101e2826101b7565b9050919050565b6101f2816101d7565b82525050565b6000819050919050565b61020b816101f8565b82525050565b600081519050919050565b600082825260208201905092915050565b60005b8381101561024b578082015181840152602081019050610230565b8381111561025a576000848401525b50505050565b6000601f19601f8301169050919050565b600061027c82610211565b610286818561021c565b935061029681856020860161022d565b61029f81610260565b840191505092915050565b600060e0820190506102bf600083018a610158565b6102cc6020830189610171565b6102d9604083018861018d565b6102e660608301876101a8565b6102f360808301866101e9565b61030060a0830185610202565b81810360c08301526103128184610271565b905098975050505050505050565b7f4e487b7100000000000000000000000000000000000000000000000000000000600052602260045260246000fd5b6000600282049050600182168061036757607f821691505b60208210810361037a57610379610320565b5b5091905056fea264697066735822122014683e5b98bbcf6ac9a1d2201f46bc67f0f27d805e4993a0e813df1fba1e621c64736f6c634300080d0033",
  "immutableReferences": {},
  "source": "pragma solidity >=0.8.13;\r\n\r\ncontract   DataType{\r\n    uint256 x = 23;\r\n    int256 y = -13;\r\n    uint8 counter = 0;\r\n    bool isFlag = true;\r\n    address owner = msg.sender;\r\n    bytes32 bMsg = 'test';\r\n    string sMsg = 'test';\r\n    constructor(){\r\n\r\n    }\r\n\r\n    function GetAll() public view returns (uint256, int256, uint8, bool, address, bytes32, string memory) {\r\n        return (x, y, counter, isFlag, owner, bMsg, sMsg);\r\n    }\r\n}",
  "sourcePath": "C:\\Users\\sitth\\OneDrive\\\\blockchain-workshop\\my-contract\\contracts\\DataType.sol",
  "compiler": {
    "name": "solc",
    "version": "0.8.13+commit.abaa5c0e.Emscripten.clang"
  },
  "schemaVersion": "3.4.7",
  "updatedAt": "2022-05-12T06:37:46.395Z",
  "networkType": "ethereum",
  "devdoc": {
    "kind": "dev",
    "methods": {},
    "version": 1
  },
  "userdoc": {
    "kind": "user",
    "methods": {},
    "version": 1
  }
}