{
  "contractName": "DoggyCoin",
  "abi": [
    {
      "inputs": [
        {
          "internalType": "uint256",
          "name": "_initialAmount",
          "type": "uint256"
        },
        {
          "internalType": "string",
          "name": "_tokenName",
          "type": "string"
        },
        {
          "internalType": "uint8",
          "name": "_decimalUnits",
          "type": "uint8"
        },
        {
          "internalType": "string",
          "name": "_tokenSymbol",
          "type": "string"
        }
      ],
      "stateMutability": "nonpayable",
      "type": "constructor"
    },
    {
      "anonymous": false,
      "inputs": [
        {
          "indexed": true,
          "internalType": "address",
          "name": "tokenOwner",
          "type": "address"
        },
        {
          "indexed": true,
          "internalType": "address",
          "name": "spender",
          "type": "address"
        },
        {
          "indexed": false,
          "internalType": "uint256",
          "name": "tokens",
          "type": "uint256"
        }
      ],
      "name": "Approval",
      "type": "event"
    },
    {
      "anonymous": false,
      "inputs": [
        {
          "indexed": true,
          "internalType": "address",
          "name": "from",
          "type": "address"
        },
        {
          "indexed": true,
          "internalType": "address",
          "name": "to",
          "type": "address"
        },
        {
          "indexed": false,
          "internalType": "uint256",
          "name": "tokens",
          "type": "uint256"
        }
      ],
      "name": "Transfer",
      "type": "event"
    },
    {
      "inputs": [
        {
          "internalType": "address",
          "name": "",
          "type": "address"
        },
        {
          "internalType": "address",
          "name": "",
          "type": "address"
        }
      ],
      "name": "allowed",
      "outputs": [
        {
          "internalType": "uint256",
          "name": "",
          "type": "uint256"
        }
      ],
      "stateMutability": "view",
      "type": "function",
      "constant": true
    },
    {
      "inputs": [
        {
          "internalType": "address",
          "name": "",
          "type": "address"
        }
      ],
      "name": "balances",
      "outputs": [
        {
          "internalType": "uint256",
          "name": "",
          "type": "uint256"
        }
      ],
      "stateMutability": "view",
      "type": "function",
      "constant": true
    },
    {
      "inputs": [],
      "name": "decimals",
      "outputs": [
        {
          "internalType": "uint8",
          "name": "",
          "type": "uint8"
        }
      ],
      "stateMutability": "view",
      "type": "function",
      "constant": true
    },
    {
      "inputs": [],
      "name": "name",
      "outputs": [
        {
          "internalType": "string",
          "name": "",
          "type": "string"
        }
      ],
      "stateMutability": "view",
      "type": "function",
      "constant": true
    },
    {
      "inputs": [],
      "name": "symbol",
      "outputs": [
        {
          "internalType": "string",
          "name": "",
          "type": "string"
        }
      ],
      "stateMutability": "view",
      "type": "function",
      "constant": true
    },
    {
      "inputs": [],
      "name": "totSupply",
      "outputs": [
        {
          "internalType": "uint256",
          "name": "",
          "type": "uint256"
        }
      ],
      "stateMutability": "view",
      "type": "function",
      "constant": true
    },
    {
      "inputs": [
        {
          "internalType": "address",
          "name": "_to",
          "type": "address"
        },
        {
          "internalType": "uint256",
          "name": "_value",
          "type": "uint256"
        }
      ],
      "name": "transfer",
      "outputs": [
        {
          "internalType": "bool",
          "name": "success",
          "type": "bool"
        }
      ],
      "stateMutability": "nonpayable",
      "type": "function"
    },
    {
      "inputs": [
        {
          "internalType": "address",
          "name": "_from",
          "type": "address"
        },
        {
          "internalType": "address",
          "name": "_to",
          "type": "address"
        },
        {
          "internalType": "uint256",
          "name": "_value",
          "type": "uint256"
        }
      ],
      "name": "transferFrom",
      "outputs": [
        {
          "internalType": "bool",
          "name": "success",
          "type": "bool"
        }
      ],
      "stateMutability": "nonpayable",
      "type": "function"
    },
    {
      "inputs": [
        {
          "internalType": "address",
          "name": "_owner",
          "type": "address"
        }
      ],
      "name": "balanceOf",
      "outputs": [
        {
          "internalType": "uint256",
          "name": "balance",
          "type": "uint256"
        }
      ],
      "stateMutability": "view",
      "type": "function",
      "constant": true
    },
    {
      "inputs": [
        {
          "internalType": "address",
          "name": "_spender",
          "type": "address"
        },
        {
          "internalType": "uint256",
          "name": "_value",
          "type": "uint256"
        }
      ],
      "name": "approve",
      "outputs": [
        {
          "internalType": "bool",
          "name": "success",
          "type": "bool"
        }
      ],
      "stateMutability": "nonpayable",
      "type": "function"
    },
    {
      "inputs": [
        {
          "internalType": "address",
          "name": "_owner",
          "type": "address"
        },
        {
          "internalType": "address",
          "name": "_spender",
          "type": "address"
        }
      ],
      "name": "allowance",
      "outputs": [
        {
          "internalType": "uint256",
          "name": "remaining",
          "type": "uint256"
        }
      ],
      "stateMutability": "view",
      "type": "function",
      "constant": true
    },
    {
      "inputs": [],
      "name": "totalSupply",
      "outputs": [
        {
          "internalType": "uint256",
          "name": "totSupp",
          "type": "uint256"
        }
      ],
      "stateMutability": "view",
      "type": "function",
      "constant": true
    }
  ],
  "bytecode": "0x60806040523480156200001157600080fd5b506040516200147e3803806200147e83398181016040528101906200003791906200039e565b836000803373ffffffffffffffffffffffffffffffffffffffff1673ffffffffffffffffffffffffffffffffffffffff1681526020019081526020016000208190555083600281905550826003908051906020019062000099929190620000d8565b5081600460006101000a81548160ff021916908360ff1602179055508060059080519060200190620000cd929190620000d8565b5050505050620004b2565b828054620000e6906200047d565b90600052602060002090601f0160209004810192826200010a576000855562000156565b82601f106200012557805160ff191683800117855562000156565b8280016001018555821562000156579182015b828111156200015557825182559160200191906001019062000138565b5b50905062000165919062000169565b5090565b5b80821115620001845760008160009055506001016200016a565b5090565b6000604051905090565b600080fd5b600080fd5b6000819050919050565b620001b1816200019c565b8114620001bd57600080fd5b50565b600081519050620001d181620001a6565b92915050565b600080fd5b600080fd5b6000601f19601f8301169050919050565b7f4e487b7100000000000000000000000000000000000000000000000000000000600052604160045260246000fd5b6200022c82620001e1565b810181811067ffffffffffffffff821117156200024e576200024d620001f2565b5b80604052505050565b60006200026362000188565b905062000271828262000221565b919050565b600067ffffffffffffffff821115620002945762000293620001f2565b5b6200029f82620001e1565b9050602081019050919050565b60005b83811015620002cc578082015181840152602081019050620002af565b83811115620002dc576000848401525b50505050565b6000620002f9620002f38462000276565b62000257565b905082815260208101848484011115620003185762000317620001dc565b5b62000325848285620002ac565b509392505050565b600082601f830112620003455762000344620001d7565b5b815162000357848260208601620002e2565b91505092915050565b600060ff82169050919050565b620003788162000360565b81146200038457600080fd5b50565b60008151905062000398816200036d565b92915050565b60008060008060808587031215620003bb57620003ba62000192565b5b6000620003cb87828801620001c0565b945050602085015167ffffffffffffffff811115620003ef57620003ee62000197565b5b620003fd878288016200032d565b9350506040620004108782880162000387565b925050606085015167ffffffffffffffff81111562000434576200043362000197565b5b62000442878288016200032d565b91505092959194509250565b7f4e487b7100000000000000000000000000000000000000000000000000000000600052602260045260246000fd5b600060028204905060018216806200049657607f821691505b602082108103620004ac57620004ab6200044e565b5b50919050565b610fbc80620004c26000396000f3fe608060405234801561001057600080fd5b50600436106100b45760003560e01c80635c658165116100715780635c658165146101a357806370a08231146101d357806381fbf0a51461020357806395d89b4114610221578063a9059cbb1461023f578063dd62ed3e1461026f576100b4565b806306fdde03146100b9578063095ea7b3146100d757806318160ddd1461010757806323b872dd1461012557806327e235e314610155578063313ce56714610185575b600080fd5b6100c161029f565b6040516100ce9190610af7565b60405180910390f35b6100f160048036038101906100ec9190610bb2565b61032d565b6040516100fe9190610c0d565b60405180910390f35b61010f61041f565b60405161011c9190610c37565b60405180910390f35b61013f600480360381019061013a9190610c52565b610429565b60405161014c9190610c0d565b60405180910390f35b61016f600480360381019061016a9190610ca5565b61070f565b60405161017c9190610c37565b60405180910390f35b61018d610727565b60405161019a9190610cee565b60405180910390f35b6101bd60048036038101906101b89190610d09565b61073a565b6040516101ca9190610c37565b60405180910390f35b6101ed60048036038101906101e89190610ca5565b61075f565b6040516101fa9190610c37565b60405180910390f35b61020b6107a7565b6040516102189190610c37565b60405180910390f35b6102296107ad565b6040516102369190610af7565b60405180910390f35b61025960048036038101906102549190610bb2565b61083b565b6040516102669190610c0d565b60405180910390f35b61028960048036038101906102849190610d09565b6109d7565b6040516102969190610c37565b60405180910390f35b600380546102ac90610d78565b80601f01602080910402602001604051908101604052809291908181526020018280546102d890610d78565b80156103255780601f106102fa57610100808354040283529160200191610325565b820191906000526020600020905b81548152906001019060200180831161030857829003601f168201915b505050505081565b600081600160003373ffffffffffffffffffffffffffffffffffffffff1673ffffffffffffffffffffffffffffffffffffffff16815260200190815260200160002060008573ffffffffffffffffffffffffffffffffffffffff1673ffffffffffffffffffffffffffffffffffffffff168152602001908152602001600020819055508273ffffffffffffffffffffffffffffffffffffffff163373ffffffffffffffffffffffffffffffffffffffff167f8c5be1e5ebec7d5bd14f71427d1e84f3dd0314c0f7b2291e5b200ac8c7c3b9258460405161040d9190610c37565b60405180910390a36001905092915050565b6000600254905090565b600080600160008673ffffffffffffffffffffffffffffffffffffffff1673ffffffffffffffffffffffffffffffffffffffff16815260200190815260200160002060003373ffffffffffffffffffffffffffffffffffffffff1673ffffffffffffffffffffffffffffffffffffffff168152602001908152602001600020549050826000808773ffffffffffffffffffffffffffffffffffffffff1673ffffffffffffffffffffffffffffffffffffffff16815260200190815260200160002054101580156104f95750828110155b610538576040517f08c379a000000000000000000000000000000000000000000000000000000000815260040161052f90610e1b565b60405180910390fd5b826000808673ffffffffffffffffffffffffffffffffffffffff1673ffffffffffffffffffffffffffffffffffffffff16815260200190815260200160002060008282546105869190610e6a565b92505081905550826000808773ffffffffffffffffffffffffffffffffffffffff1673ffffffffffffffffffffffffffffffffffffffff16815260200190815260200160002060008282546105db9190610ec0565b925050819055507fffffffffffffffffffffffffffffffffffffffffffffffffffffffffffffffff81101561069e5782600160008773ffffffffffffffffffffffffffffffffffffffff1673ffffffffffffffffffffffffffffffffffffffff16815260200190815260200160002060003373ffffffffffffffffffffffffffffffffffffffff1673ffffffffffffffffffffffffffffffffffffffff16815260200190815260200160002060008282546106969190610ec0565b925050819055505b8373ffffffffffffffffffffffffffffffffffffffff168573ffffffffffffffffffffffffffffffffffffffff167fddf252ad1be2c89b69c2b068fc378daa952ba7f163c4a11628f55a4df523b3ef856040516106fb9190610c37565b60405180910390a360019150509392505050565b60006020528060005260406000206000915090505481565b600460009054906101000a900460ff1681565b6001602052816000526040600020602052806000526040600020600091509150505481565b60008060008373ffffffffffffffffffffffffffffffffffffffff1673ffffffffffffffffffffffffffffffffffffffff168152602001908152602001600020549050919050565b60025481565b600580546107ba90610d78565b80601f01602080910402602001604051908101604052809291908181526020018280546107e690610d78565b80156108335780601f1061080857610100808354040283529160200191610833565b820191906000526020600020905b81548152906001019060200180831161081657829003601f168201915b505050505081565b6000816000803373ffffffffffffffffffffffffffffffffffffffff1673ffffffffffffffffffffffffffffffffffffffff1681526020019081526020016000205410156108be576040517f08c379a00000000000000000000000000000000000000000000000000000000081526004016108b590610f66565b60405180910390fd5b816000803373ffffffffffffffffffffffffffffffffffffffff1673ffffffffffffffffffffffffffffffffffffffff168152602001908152602001600020600082825461090c9190610ec0565b92505081905550816000808573ffffffffffffffffffffffffffffffffffffffff1673ffffffffffffffffffffffffffffffffffffffff16815260200190815260200160002060008282546109619190610e6a565b925050819055508273ffffffffffffffffffffffffffffffffffffffff163373ffffffffffffffffffffffffffffffffffffffff167fddf252ad1be2c89b69c2b068fc378daa952ba7f163c4a11628f55a4df523b3ef846040516109c59190610c37565b60405180910390a36001905092915050565b6000600160008473ffffffffffffffffffffffffffffffffffffffff1673ffffffffffffffffffffffffffffffffffffffff16815260200190815260200160002060008373ffffffffffffffffffffffffffffffffffffffff1673ffffffffffffffffffffffffffffffffffffffff16815260200190815260200160002054905092915050565b600081519050919050565b600082825260208201905092915050565b60005b83811015610a98578082015181840152602081019050610a7d565b83811115610aa7576000848401525b50505050565b6000601f19601f8301169050919050565b6000610ac982610a5e565b610ad38185610a69565b9350610ae3818560208601610a7a565b610aec81610aad565b840191505092915050565b60006020820190508181036000830152610b118184610abe565b905092915050565b600080fd5b600073ffffffffffffffffffffffffffffffffffffffff82169050919050565b6000610b4982610b1e565b9050919050565b610b5981610b3e565b8114610b6457600080fd5b50565b600081359050610b7681610b50565b92915050565b6000819050919050565b610b8f81610b7c565b8114610b9a57600080fd5b50565b600081359050610bac81610b86565b92915050565b60008060408385031215610bc957610bc8610b19565b5b6000610bd785828601610b67565b9250506020610be885828601610b9d565b9150509250929050565b60008115159050919050565b610c0781610bf2565b82525050565b6000602082019050610c226000830184610bfe565b92915050565b610c3181610b7c565b82525050565b6000602082019050610c4c6000830184610c28565b92915050565b600080600060608486031215610c6b57610c6a610b19565b5b6000610c7986828701610b67565b9350506020610c8a86828701610b67565b9250506040610c9b86828701610b9d565b9150509250925092565b600060208284031215610cbb57610cba610b19565b5b6000610cc984828501610b67565b91505092915050565b600060ff82169050919050565b610ce881610cd2565b82525050565b6000602082019050610d036000830184610cdf565b92915050565b60008060408385031215610d2057610d1f610b19565b5b6000610d2e85828601610b67565b9250506020610d3f85828601610b67565b9150509250929050565b7f4e487b7100000000000000000000000000000000000000000000000000000000600052602260045260246000fd5b60006002820490506001821680610d9057607f821691505b602082108103610da357610da2610d49565b5b50919050565b7f496e73756666696369656e7420616c6c6f7765642066756e647320666f72207460008201527f72616e7366657220736f757263652e0000000000000000000000000000000000602082015250565b6000610e05602f83610a69565b9150610e1082610da9565b604082019050919050565b60006020820190508181036000830152610e3481610df8565b9050919050565b7f4e487b7100000000000000000000000000000000000000000000000000000000600052601160045260246000fd5b6000610e7582610b7c565b9150610e8083610b7c565b9250827fffffffffffffffffffffffffffffffffffffffffffffffffffffffffffffffff03821115610eb557610eb4610e3b565b5b828201905092915050565b6000610ecb82610b7c565b9150610ed683610b7c565b925082821015610ee957610ee8610e3b565b5b828203905092915050565b7f496e73756666696369656e742066756e647320666f72207472616e736665722060008201527f736f757263652e00000000000000000000000000000000000000000000000000602082015250565b6000610f50602783610a69565b9150610f5b82610ef4565b604082019050919050565b60006020820190508181036000830152610f7f81610f43565b905091905056fea2646970667358221220ffd697a9d343b749776439513d5eb8274d65110434b44b3c87917ea27589404364736f6c634300080d0033",
  "immutableReferences": {},
  "source": "pragma solidity >=0.4.21 <0.9.0;\r\n\r\nimport './erc20Interface.sol';\r\n\r\ncontract DoggyCoin is ERC20Interface {\r\n\r\n    uint256 constant private MAX_UINT256 = 2**256 - 1;\r\n    mapping (address => uint256) public balances;\r\n    mapping (address => mapping (address => uint256)) public allowed;\r\n\r\n    uint256 public totSupply;           // Total number of tokens\r\n    string public name;                   // Descriptive name (i.e. For Dummies Sample Token)\r\n    uint8 public decimals;                // How many decimals to use when displaying amounts\r\n    string public symbol;                 // Short identifier for token (i.e. FDT)\r\n\r\n    // Create the new token and assign initial values, including initial amount\r\n    constructor(\r\n        uint256 _initialAmount,\r\n        string memory _tokenName,\r\n        uint8 _decimalUnits,\r\n        string memory _tokenSymbol\r\n    ) {\r\n        balances[msg.sender] = _initialAmount;              \r\n        totSupply = _initialAmount;                       \r\n        name = _tokenName;                                 \r\n        decimals = _decimalUnits;                        \r\n        symbol = _tokenSymbol;                            \r\n    }\r\n\r\n    // Transfer tokens from msg.sender to a specified address\r\n     function  transfer(address _to, uint256 _value) public override returns (bool success)  {\r\n        require(balances[msg.sender] >= _value,\"Insufficient funds for transfer source.\");\r\n        balances[msg.sender] -= _value;\r\n        balances[_to] += _value;\r\n        emit Transfer(msg.sender, _to, _value); //solhint-disable-line indent, no-unused-vars\r\n        return true;\r\n    }\r\n\r\n    // Transfer tokens from one specified address to another specified address\r\n    function transferFrom(address _from, address _to, uint256 _value) public override returns (bool success) {\r\n        uint256 allowance = allowed[_from][msg.sender];\r\n        require(balances[_from] >= _value && allowance >= _value,\"Insufficient allowed funds for transfer source.\");\r\n        balances[_to] += _value;\r\n        balances[_from] -= _value;\r\n        if (allowance < MAX_UINT256) {\r\n            allowed[_from][msg.sender] -= _value;\r\n        }\r\n        emit Transfer(_from, _to, _value); //solhint-disable-line indent, no-unused-vars\r\n        return true;\r\n    }\r\n\r\n    // Return the current balance (in tokens) of a specified address\r\n    function balanceOf(address _owner) public view override returns (uint256 balance) {\r\n        return balances[_owner];\r\n    }\r\n\r\n    // Set\r\n    function approve(address _spender, uint256 _value) public  override returns (bool success) {\r\n        allowed[msg.sender][_spender] = _value;\r\n        emit Approval(msg.sender, _spender, _value); //solhint-disable-line indent, no-unused-vars\r\n        return true;\r\n    }\r\n\r\n    // Return the\r\n    function allowance(address _owner, address _spender) public view override returns (uint256 remaining) {\r\n        return allowed[_owner][_spender];\r\n    }\r\n\r\n    // Return the total number of tokens in circulation\r\n    function totalSupply() public view override returns (uint256 totSupp) {\r\n        return totSupply;\r\n    }\r\n}",
  "sourcePath": "C:\\Users\\sitth\\OneDrive\\\\blockchain-workshop\\my-contract\\contracts\\DoggyCoin.sol",
  "compiler": {
    "name": "solc",
    "version": "0.8.13+commit.abaa5c0e.Emscripten.clang"
  },
  "schemaVersion": "3.4.7",
  "updatedAt": "2022-05-12T03:15:10.623Z",
  "networkType": "ethereum",
  "devdoc": {
    "kind": "dev",
    "methods": {},
    "version": 1
  },
  "userdoc": {
    "kind": "user",
    "methods": {},
    "version": 1
  }
}