{
  "contractName": "EventContract",
  "abi": [
    {
      "inputs": [],
      "name": "event_id",
      "outputs": [
        {
          "internalType": "uint256",
          "name": "",
          "type": "uint256"
        }
      ],
      "stateMutability": "view",
      "type": "function",
      "constant": true
    },
    {
      "inputs": [
        {
          "internalType": "uint256",
          "name": "",
          "type": "uint256"
        }
      ],
      "name": "events",
      "outputs": [
        {
          "internalType": "string",
          "name": "name",
          "type": "string"
        },
        {
          "internalType": "string",
          "name": "description",
          "type": "string"
        },
        {
          "internalType": "address",
          "name": "eventOwner",
          "type": "address"
        }
      ],
      "stateMutability": "view",
      "type": "function",
      "constant": true
    },
    {
      "inputs": [
        {
          "internalType": "string",
          "name": "_name",
          "type": "string"
        },
        {
          "internalType": "string",
          "name": "_description",
          "type": "string"
        }
      ],
      "name": "createNewEvent",
      "outputs": [
        {
          "internalType": "uint256",
          "name": "",
          "type": "uint256"
        }
      ],
      "stateMutability": "nonpayable",
      "type": "function"
    },
    {
      "inputs": [],
      "name": "getEventCount",
      "outputs": [
        {
          "internalType": "uint256",
          "name": "",
          "type": "uint256"
        }
      ],
      "stateMutability": "view",
      "type": "function",
      "constant": true
    },
    {
      "inputs": [
        {
          "internalType": "uint256",
          "name": "eventId",
          "type": "uint256"
        }
      ],
      "name": "getEventInformation",
      "outputs": [
        {
          "internalType": "string",
          "name": "",
          "type": "string"
        },
        {
          "internalType": "string",
          "name": "",
          "type": "string"
        },
        {
          "internalType": "address",
          "name": "",
          "type": "address"
        }
      ],
      "stateMutability": "view",
      "type": "function",
      "constant": true
    }
  ],
  "bytecode": "0x60806040526000805534801561001457600080fd5b50610a3f806100246000396000f3fe608060405234801561001057600080fd5b50600436106100575760003560e01c80630b7914301461005c578063710322c21461008e57806391039dee146100be578063d9e48f5c146100dc578063dc8855ae146100fa575b600080fd5b6100766004803603810190610071919061060f565b61012c565b60405161008593929190610716565b60405180910390f35b6100a860048036038101906100a39190610890565b610286565b6040516100b59190610917565b60405180910390f35b6100c6610356565b6040516100d39190610917565b60405180910390f35b6100e461035c565b6040516100f19190610917565b60405180910390f35b610114600480360381019061010f919061060f565b610365565b60405161012393929190610716565b60405180910390f35b600160205280600052604060002060009150905080600001805461014f90610961565b80601f016020809104026020016040519081016040528092919081815260200182805461017b90610961565b80156101c85780601f1061019d576101008083540402835291602001916101c8565b820191906000526020600020905b8154815290600101906020018083116101ab57829003601f168201915b5050505050908060010180546101dd90610961565b80601f016020809104026020016040519081016040528092919081815260200182805461020990610961565b80156102565780601f1061022b57610100808354040283529160200191610256565b820191906000526020600020905b81548152906001019060200180831161023957829003601f168201915b5050505050908060020160009054906101000a900473ffffffffffffffffffffffffffffffffffffffff16905083565b60008060008081548092919061029b906109c1565b919050559050836001600083815260200190815260200160002060000190805190602001906102cb929190610522565b50826001600083815260200190815260200160002060010190805190602001906102f6929190610522565b50336001600083815260200190815260200160002060020160006101000a81548173ffffffffffffffffffffffffffffffffffffffff021916908373ffffffffffffffffffffffffffffffffffffffff1602179055508091505092915050565b60005481565b60008054905090565b6060806000806001600086815260200190815260200160002060405180606001604052908160008201805461039990610961565b80601f01602080910402602001604051908101604052809291908181526020018280546103c590610961565b80156104125780601f106103e757610100808354040283529160200191610412565b820191906000526020600020905b8154815290600101906020018083116103f557829003601f168201915b5050505050815260200160018201805461042b90610961565b80601f016020809104026020016040519081016040528092919081815260200182805461045790610961565b80156104a45780601f10610479576101008083540402835291602001916104a4565b820191906000526020600020905b81548152906001019060200180831161048757829003601f168201915b505050505081526020016002820160009054906101000a900473ffffffffffffffffffffffffffffffffffffffff1673ffffffffffffffffffffffffffffffffffffffff1673ffffffffffffffffffffffffffffffffffffffff16815250509050806000015181602001518260400151935093509350509193909250565b82805461052e90610961565b90600052602060002090601f0160209004810192826105505760008555610597565b82601f1061056957805160ff1916838001178555610597565b82800160010185558215610597579182015b8281111561059657825182559160200191906001019061057b565b5b5090506105a491906105a8565b5090565b5b808211156105c15760008160009055506001016105a9565b5090565b6000604051905090565b600080fd5b600080fd5b6000819050919050565b6105ec816105d9565b81146105f757600080fd5b50565b600081359050610609816105e3565b92915050565b600060208284031215610625576106246105cf565b5b6000610633848285016105fa565b91505092915050565b600081519050919050565b600082825260208201905092915050565b60005b8381101561067657808201518184015260208101905061065b565b83811115610685576000848401525b50505050565b6000601f19601f8301169050919050565b60006106a78261063c565b6106b18185610647565b93506106c1818560208601610658565b6106ca8161068b565b840191505092915050565b600073ffffffffffffffffffffffffffffffffffffffff82169050919050565b6000610700826106d5565b9050919050565b610710816106f5565b82525050565b60006060820190508181036000830152610730818661069c565b90508181036020830152610744818561069c565b90506107536040830184610707565b949350505050565b600080fd5b600080fd5b7f4e487b7100000000000000000000000000000000000000000000000000000000600052604160045260246000fd5b61079d8261068b565b810181811067ffffffffffffffff821117156107bc576107bb610765565b5b80604052505050565b60006107cf6105c5565b90506107db8282610794565b919050565b600067ffffffffffffffff8211156107fb576107fa610765565b5b6108048261068b565b9050602081019050919050565b82818337600083830152505050565b600061083361082e846107e0565b6107c5565b90508281526020810184848401111561084f5761084e610760565b5b61085a848285610811565b509392505050565b600082601f8301126108775761087661075b565b5b8135610887848260208601610820565b91505092915050565b600080604083850312156108a7576108a66105cf565b5b600083013567ffffffffffffffff8111156108c5576108c46105d4565b5b6108d185828601610862565b925050602083013567ffffffffffffffff8111156108f2576108f16105d4565b5b6108fe85828601610862565b9150509250929050565b610911816105d9565b82525050565b600060208201905061092c6000830184610908565b92915050565b7f4e487b7100000000000000000000000000000000000000000000000000000000600052602260045260246000fd5b6000600282049050600182168061097957607f821691505b60208210810361098c5761098b610932565b5b50919050565b7f4e487b7100000000000000000000000000000000000000000000000000000000600052601160045260246000fd5b60006109cc826105d9565b91507fffffffffffffffffffffffffffffffffffffffffffffffffffffffffffffffff82036109fe576109fd610992565b5b60018201905091905056fea2646970667358221220388d971e8eb01aa78c0420818d28928e479bf7517fc8255e8d388523cfb915d764736f6c634300080d0033",
  "immutableReferences": {},
  "source": "pragma solidity >=0.4.21 <0.9.0;\r\n\r\ncontract EventContract {\r\n    uint256 public event_id = 0;\r\n\r\n    struct anEvent {\r\n        string name;\r\n        string description;\r\n        address eventOwner;\r\n    }\r\n\r\n    mapping(uint256 => anEvent) public events; // mapping  dictionary \r\n\r\n    function createNewEvent(string memory _name, string memory _description ) public returns (uint256) {\r\n        uint256 eid = event_id++;\r\n        events[eid].name = _name;\r\n        events[eid].description = _description;\r\n        events[eid].eventOwner = msg.sender;\r\n        return eid;\r\n    }\r\n\r\n    function getEventCount() public view returns(uint256){\r\n        return event_id;\r\n    }\r\n\r\n    function getEventInformation(uint256 eventId) public view returns (string memory, string memory, address) {\r\n        anEvent memory targetEvent = events[eventId];\r\n\r\n        return (targetEvent.name, targetEvent.description, targetEvent.eventOwner);\r\n    }\r\n}",
  "sourcePath": "C:\\Users\\sitth\\OneDrive\\\\blockchain-workshop\\my-contract\\contracts\\EventContract.sol",
  "compiler": {
    "name": "solc",
    "version": "0.8.13+commit.abaa5c0e.Emscripten.clang"
  },
  "schemaVersion": "3.4.7",
  "updatedAt": "2022-05-12T06:37:48.983Z",
  "networkType": "ethereum",
  "devdoc": {
    "kind": "dev",
    "methods": {},
    "version": 1
  },
  "userdoc": {
    "kind": "user",
    "methods": {},
    "version": 1
  }
}